{"abi":[{"type":"constructor","inputs":[{"name":"_usdt","type":"address","internalType":"address"},{"name":"_usde","type":"address","internalType":"address"},{"name":"_curvePool","type":"address","internalType":"address"},{"name":"_curveUsdtIndex","type":"int128","internalType":"int128"},{"name":"_curveUsdeIndex","type":"int128","internalType":"int128"},{"name":"_uniRouter","type":"address","internalType":"address"},{"name":"_uniQuoter","type":"address","internalType":"address"},{"name":"_uniFee","type":"uint24","internalType":"uint24"}],"stateMutability":"nonpayable"},{"type":"function","name":"USDT","inputs":[],"outputs":[{"name":"","type":"address","internalType":"contract IERC20"}],"stateMutability":"view"},{"type":"function","name":"USDe","inputs":[],"outputs":[{"name":"","type":"address","internalType":"contract IERC20"}],"stateMutability":"view"},{"type":"function","name":"curvePool","inputs":[],"outputs":[{"name":"","type":"address","internalType":"contract ICurvePool"}],"stateMutability":"view"},{"type":"function","name":"curveUsdeIndex","inputs":[],"outputs":[{"name":"","type":"int128","internalType":"int128"}],"stateMutability":"view"},{"type":"function","name":"curveUsdtIndex","inputs":[],"outputs":[{"name":"","type":"int128","internalType":"int128"}],"stateMutability":"view"},{"type":"function","name":"owner","inputs":[],"outputs":[{"name":"","type":"address","internalType":"address"}],"stateMutability":"view"},{"type":"function","name":"quoteUSDTtoUSDe","inputs":[{"name":"usdtIn","type":"uint256","internalType":"uint256"}],"outputs":[{"name":"best","type":"uint256","internalType":"uint256"}],"stateMutability":"view"},{"type":"function","name":"quoteUSDetoUSDT","inputs":[{"name":"usdeIn","type":"uint256","internalType":"uint256"}],"outputs":[{"name":"best","type":"uint256","internalType":"uint256"}],"stateMutability":"view"},{"type":"function","name":"rescue","inputs":[{"name":"token","type":"address","internalType":"contract IERC20"},{"name":"to","type":"address","internalType":"address"},{"name":"amt","type":"uint256","internalType":"uint256"}],"outputs":[],"stateMutability":"nonpayable"},{"type":"function","name":"swapExactUSDTForUSDe","inputs":[{"name":"usdtIn","type":"uint256","internalType":"uint256"},{"name":"minUsdeOut","type":"uint256","internalType":"uint256"},{"name":"to","type":"address","internalType":"address"}],"outputs":[{"name":"amountOut","type":"uint256","internalType":"uint256"}],"stateMutability":"nonpayable"},{"type":"function","name":"swapExactUSDeForUSDT","inputs":[{"name":"usdeIn","type":"uint256","internalType":"uint256"},{"name":"minUsdtOut","type":"uint256","internalType":"uint256"},{"name":"to","type":"address","internalType":"address"}],"outputs":[{"name":"amountOut","type":"uint256","internalType":"uint256"}],"stateMutability":"nonpayable"},{"type":"function","name":"uniFee","inputs":[],"outputs":[{"name":"","type":"uint24","internalType":"uint24"}],"stateMutability":"view"},{"type":"function","name":"uniQuoter","inputs":[],"outputs":[{"name":"","type":"address","internalType":"contract IUniswapV3Quoter"}],"stateMutability":"view"},{"type":"function","name":"uniRouter","inputs":[],"outputs":[{"name":"","type":"address","internalType":"contract IUniswapV3Router"}],"stateMutability":"view"},{"type":"error","name":"MinOutTooHigh","inputs":[]}],"bytecode":{"object":"0x6101a060405234801562000011575f80fd5b5060405162002135380380620021358339810160408190526200003491620002ea565b6001600160a01b038816158015906200005557506001600160a01b03871615155b620000945760405162461bcd60e51b815260206004820152600a6024820152692d22a927afaa27a5a2a760b11b60448201526064015b60405180910390fd5b6001600160a01b038616151580620000c857506001600160a01b03831615801590620000c857506001600160a01b03821615155b620001015760405162461bcd60e51b81526020600482015260086024820152674e4f5f524f55544560c01b60448201526064016200008b565b6001600160a01b0380891660805287811660a05286811660c052600f86810b60e05285900b610100528381166101208190529083166101405262ffffff821661016052336101805215620001835760805162000169906001600160a01b0316845f1962000191565b60a05162000183906001600160a01b0316845f1962000191565b5050505050505050620003ed565b604080516001600160a01b038416602482015260448082018490528251808303909101815260649091019091526020810180516001600160e01b0390811663095ea7b360e01b17909152620001e9918591620001ee16565b505050565b5f80836001600160a01b0316836040516200020a919062000397565b5f604051808303815f865af19150503d805f811462000245576040519150601f19603f3d011682016040523d82523d5f602084013e6200024a565b606091505b50915091508180156200027857508051158062000278575080806020019051810190620002789190620003c5565b620002b65760405162461bcd60e51b815260206004820152600d60248201526c115490cc8c17d3d417d1905253609a1b60448201526064016200008b565b50505050565b80516001600160a01b0381168114620002d3575f80fd5b919050565b8051600f81900b8114620002d3575f80fd5b5f805f805f805f80610100898b03121562000303575f80fd5b6200030e89620002bc565b97506200031e60208a01620002bc565b96506200032e60408a01620002bc565b95506200033e60608a01620002d8565b94506200034e60808a01620002d8565b93506200035e60a08a01620002bc565b92506200036e60c08a01620002bc565b915060e089015162ffffff8116811462000386575f80fd5b809150509295985092959890939650565b5f82515f5b81811015620003b857602081860181015185830152016200039c565b505f920191825250919050565b5f60208284031215620003d6575f80fd5b81518015158114620003e6575f80fd5b9392505050565b60805160a05160c05160e0516101005161012051610140516101605161018051611b45620005f05f395f81816101ea0152610abb01525f8181610175015281816105720152818161090d01528181610d99015281816110d5015281816113f701526116cc01525f818161024b015281816104ab015281816105aa01528181610cd201528181610dd10152818161100e0152818161110d01528181611605015261170401525f81816102110152818161085d0152818161097c01528181611347015261146601525f8181610272015281816103b1015281816106b001528181610bcd01528181610f3f0152818161123e015261152b01525f81816101b0015281816103dc015281816106db01528181610bf801528181610f1401528181611213015261150001525f81816101290152818161034f0152818161040b0152818161064b0152818161071101528181610b6b01528181610c2701528181610eb201528181610f6e015281816111ae015281816112740152818161149e015261155a01525f81816102d30152818161032301528181610522015281816108bc01528181610d49015281816110ad0152818161130f015281816113cb01526116a401525f81816102ac0152818161054a015281816107df015281816108e101528181610d7101528181610e8601528181611085015281816113a6015261167c0152611b455ff3fe608060405234801561000f575f80fd5b50600436106100e5575f3560e01c8063aeabdfc711610088578063c231149611610063578063c231149614610294578063c54e44eb146102a7578063d1609502146102ce578063e854f9cc146102f5575f80fd5b8063aeabdfc714610233578063b40a2e1e14610246578063bf7f86ed1461026d575f80fd5b80632c2a5126116100c35780632c2a51261461017057806362157470146101ab5780638da5cb5b146101e5578063a0e47bf61461020c575f80fd5b80630536ddbc146100e957806320ff430b1461010f578063218751b214610124575b5f80fd5b6100fc6100f7366004611984565b610308565b6040519081526020015b60405180910390f35b61012261011d3660046119ba565b610aa3565b005b61014b7f000000000000000000000000000000000000000000000000000000000000000081565b60405173ffffffffffffffffffffffffffffffffffffffff9091168152602001610106565b6101977f000000000000000000000000000000000000000000000000000000000000000081565b60405162ffffff9091168152602001610106565b6101d27f000000000000000000000000000000000000000000000000000000000000000081565b604051600f9190910b8152602001610106565b61014b7f000000000000000000000000000000000000000000000000000000000000000081565b61014b7f000000000000000000000000000000000000000000000000000000000000000081565b6100fc6102413660046119f8565b610b68565b61014b7f000000000000000000000000000000000000000000000000000000000000000081565b6101d27f000000000000000000000000000000000000000000000000000000000000000081565b6100fc6102a2366004611984565b610e6b565b61014b7f000000000000000000000000000000000000000000000000000000000000000081565b61014b7f000000000000000000000000000000000000000000000000000000000000000081565b6100fc6103033660046119f8565b61149b565b5f61034b73ffffffffffffffffffffffffffffffffffffffff7f000000000000000000000000000000000000000000000000000000000000000016333087611733565b5f807f000000000000000000000000000000000000000000000000000000000000000073ffffffffffffffffffffffffffffffffffffffff16156104a9576040517f5e0d443f0000000000000000000000000000000000000000000000000000000081527f0000000000000000000000000000000000000000000000000000000000000000600f90810b60048301527f0000000000000000000000000000000000000000000000000000000000000000900b6024820152604481018790527f000000000000000000000000000000000000000000000000000000000000000073ffffffffffffffffffffffffffffffffffffffff1690635e0d443f90606401602060405180830381865afa9250505080156104a1575060408051601f3d9081017fffffffffffffffffffffffffffffffffffffffffffffffffffffffffffffffe016820190925261049e91810190611a0f565b60015b156104a95791505b7f000000000000000000000000000000000000000000000000000000000000000073ffffffffffffffffffffffffffffffffffffffff1615610633576040517ff7729d4300000000000000000000000000000000000000000000000000000000815273ffffffffffffffffffffffffffffffffffffffff7f0000000000000000000000000000000000000000000000000000000000000000811660048301527f0000000000000000000000000000000000000000000000000000000000000000811660248301527f000000000000000000000000000000000000000000000000000000000000000062ffffff166044830152606482018890525f60848301527f0000000000000000000000000000000000000000000000000000000000000000169063f7729d439060a401602060405180830381865afa92505050801561062b575060408051601f3d9081017fffffffffffffffffffffffffffffffffffffffffffffffffffffffffffffffe016820190925261062891810190611a0f565b60015b156106335790505b80821015801561064257505f82115b801561068357507f000000000000000000000000000000000000000000000000000000000000000073ffffffffffffffffffffffffffffffffffffffff1615155b15610851576040517f3df021240000000000000000000000000000000000000000000000000000000081527f0000000000000000000000000000000000000000000000000000000000000000600f90810b60048301527f0000000000000000000000000000000000000000000000000000000000000000900b602482015260448101879052606481018690527f000000000000000000000000000000000000000000000000000000000000000073ffffffffffffffffffffffffffffffffffffffff1690633df02124906084016020604051808303815f875af115801561076c573d5f803e3d5ffd5b505050506040513d601f19601f820116820180604052508101906107909190611a0f565b6040517fa9059cbb00000000000000000000000000000000000000000000000000000000815273ffffffffffffffffffffffffffffffffffffffff8681166004830152602482018390529194507f00000000000000000000000000000000000000000000000000000000000000009091169063a9059cbb906044016020604051808303815f875af1158015610827573d5f803e3d5ffd5b505050506040513d601f19601f8201168201806040525081019061084b9190611a26565b50610a2b565b5f8111801561089557507f000000000000000000000000000000000000000000000000000000000000000073ffffffffffffffffffffffffffffffffffffffff1615155b156109f957604080516101008101825273ffffffffffffffffffffffffffffffffffffffff7f0000000000000000000000000000000000000000000000000000000000000000811682527f00000000000000000000000000000000000000000000000000000000000000008116602083015262ffffff7f00000000000000000000000000000000000000000000000000000000000000001682840152868116606083015242608083015260a0820189905260c082018890525f60e083015291517f414bf38900000000000000000000000000000000000000000000000000000000815290917f0000000000000000000000000000000000000000000000000000000000000000169063414bf389906109b1908490600401611a4c565b6020604051808303815f875af11580156109cd573d5f803e3d5ffd5b505050506040513d601f19601f820116820180604052508101906109f19190611a0f565b935050610a2b565b6040517fbbf7925c00000000000000000000000000000000000000000000000000000000815260040160405180910390fd5b84831015610a9a576040517f08c379a000000000000000000000000000000000000000000000000000000000815260206004820152600760248201527f4d494e5f4f55540000000000000000000000000000000000000000000000000060448201526064015b60405180910390fd5b50509392505050565b3373ffffffffffffffffffffffffffffffffffffffff7f00000000000000000000000000000000000000000000000000000000000000001614610b42576040517f08c379a000000000000000000000000000000000000000000000000000000000815260206004820152600960248201527f4e4f545f4f574e455200000000000000000000000000000000000000000000006044820152606401610a91565b610b6373ffffffffffffffffffffffffffffffffffffffff84168383611815565b505050565b5f7f000000000000000000000000000000000000000000000000000000000000000073ffffffffffffffffffffffffffffffffffffffff1615610cd0576040517f5e0d443f0000000000000000000000000000000000000000000000000000000081527f0000000000000000000000000000000000000000000000000000000000000000600f90810b60048301527f0000000000000000000000000000000000000000000000000000000000000000900b6024820152604481018390527f000000000000000000000000000000000000000000000000000000000000000073ffffffffffffffffffffffffffffffffffffffff1690635e0d443f90606401602060405180830381865afa925050508015610cbd575060408051601f3d9081017fffffffffffffffffffffffffffffffffffffffffffffffffffffffffffffffe0168201909252610cba91810190611a0f565b60015b15610cd05781811115610cce578091505b505b7f000000000000000000000000000000000000000000000000000000000000000073ffffffffffffffffffffffffffffffffffffffff1615610e66576040517ff7729d4300000000000000000000000000000000000000000000000000000000815273ffffffffffffffffffffffffffffffffffffffff7f0000000000000000000000000000000000000000000000000000000000000000811660048301527f0000000000000000000000000000000000000000000000000000000000000000811660248301527f000000000000000000000000000000000000000000000000000000000000000062ffffff166044830152606482018490525f60848301527f0000000000000000000000000000000000000000000000000000000000000000169063f7729d439060a4015b602060405180830381865afa925050508015610e53575060408051601f3d9081017fffffffffffffffffffffffffffffffffffffffffffffffffffffffffffffffe0168201909252610e5091810190611a0f565b60015b15610e665781811115610e64578091505b505b919050565b5f610eae73ffffffffffffffffffffffffffffffffffffffff7f000000000000000000000000000000000000000000000000000000000000000016333087611733565b5f807f000000000000000000000000000000000000000000000000000000000000000073ffffffffffffffffffffffffffffffffffffffff161561100c576040517f5e0d443f0000000000000000000000000000000000000000000000000000000081527f0000000000000000000000000000000000000000000000000000000000000000600f90810b60048301527f0000000000000000000000000000000000000000000000000000000000000000900b6024820152604481018790527f000000000000000000000000000000000000000000000000000000000000000073ffffffffffffffffffffffffffffffffffffffff1690635e0d443f90606401602060405180830381865afa925050508015611004575060408051601f3d9081017fffffffffffffffffffffffffffffffffffffffffffffffffffffffffffffffe016820190925261100191810190611a0f565b60015b1561100c5791505b7f000000000000000000000000000000000000000000000000000000000000000073ffffffffffffffffffffffffffffffffffffffff1615611196576040517ff7729d4300000000000000000000000000000000000000000000000000000000815273ffffffffffffffffffffffffffffffffffffffff7f0000000000000000000000000000000000000000000000000000000000000000811660048301527f0000000000000000000000000000000000000000000000000000000000000000811660248301527f000000000000000000000000000000000000000000000000000000000000000062ffffff166044830152606482018890525f60848301527f0000000000000000000000000000000000000000000000000000000000000000169063f7729d439060a401602060405180830381865afa92505050801561118e575060408051601f3d9081017fffffffffffffffffffffffffffffffffffffffffffffffffffffffffffffffe016820190925261118b91810190611a0f565b60015b156111965790505b8082101580156111a557505f82115b80156111e657507f000000000000000000000000000000000000000000000000000000000000000073ffffffffffffffffffffffffffffffffffffffff1615155b1561133b576040517f3df021240000000000000000000000000000000000000000000000000000000081527f0000000000000000000000000000000000000000000000000000000000000000600f90810b60048301527f0000000000000000000000000000000000000000000000000000000000000000900b602482015260448101879052606481018690527f000000000000000000000000000000000000000000000000000000000000000073ffffffffffffffffffffffffffffffffffffffff1690633df02124906084016020604051808303815f875af11580156112cf573d5f803e3d5ffd5b505050506040513d601f19601f820116820180604052508101906112f39190611a0f565b925061133673ffffffffffffffffffffffffffffffffffffffff7f0000000000000000000000000000000000000000000000000000000000000000168585611815565b610a2b565b5f8111801561137f57507f000000000000000000000000000000000000000000000000000000000000000073ffffffffffffffffffffffffffffffffffffffff1615155b156109f957604080516101008101825273ffffffffffffffffffffffffffffffffffffffff7f0000000000000000000000000000000000000000000000000000000000000000811682527f00000000000000000000000000000000000000000000000000000000000000008116602083015262ffffff7f00000000000000000000000000000000000000000000000000000000000000001682840152868116606083015242608083015260a0820189905260c082018890525f60e083015291517f414bf38900000000000000000000000000000000000000000000000000000000815290917f0000000000000000000000000000000000000000000000000000000000000000169063414bf389906109b1908490600401611a4c565b5f7f000000000000000000000000000000000000000000000000000000000000000073ffffffffffffffffffffffffffffffffffffffff1615611603576040517f5e0d443f0000000000000000000000000000000000000000000000000000000081527f0000000000000000000000000000000000000000000000000000000000000000600f90810b60048301527f0000000000000000000000000000000000000000000000000000000000000000900b6024820152604481018390527f000000000000000000000000000000000000000000000000000000000000000073ffffffffffffffffffffffffffffffffffffffff1690635e0d443f90606401602060405180830381865afa9250505080156115f0575060408051601f3d9081017fffffffffffffffffffffffffffffffffffffffffffffffffffffffffffffffe01682019092526115ed91810190611a0f565b60015b156116035781811115611601578091505b505b7f000000000000000000000000000000000000000000000000000000000000000073ffffffffffffffffffffffffffffffffffffffff1615610e66576040517ff7729d4300000000000000000000000000000000000000000000000000000000815273ffffffffffffffffffffffffffffffffffffffff7f0000000000000000000000000000000000000000000000000000000000000000811660048301527f0000000000000000000000000000000000000000000000000000000000000000811660248301527f000000000000000000000000000000000000000000000000000000000000000062ffffff166044830152606482018490525f60848301527f0000000000000000000000000000000000000000000000000000000000000000169063f7729d439060a401610dfc565b60405173ffffffffffffffffffffffffffffffffffffffff8085166024830152831660448201526064810182905261180f9085907f23b872dd00000000000000000000000000000000000000000000000000000000906084015b604080517fffffffffffffffffffffffffffffffffffffffffffffffffffffffffffffffe08184030181529190526020810180517bffffffffffffffffffffffffffffffffffffffffffffffffffffffff167fffffffff000000000000000000000000000000000000000000000000000000009093169290921790915261186b565b50505050565b60405173ffffffffffffffffffffffffffffffffffffffff8316602482015260448101829052610b639084907fa9059cbb000000000000000000000000000000000000000000000000000000009060640161178d565b5f808373ffffffffffffffffffffffffffffffffffffffff16836040516118929190611ae3565b5f604051808303815f865af19150503d805f81146118cb576040519150601f19603f3d011682016040523d82523d5f602084013e6118d0565b606091505b50915091508180156118fa5750805115806118fa5750808060200190518101906118fa9190611a26565b61180f576040517f08c379a000000000000000000000000000000000000000000000000000000000815260206004820152600d60248201527f45524332305f4f505f4641494c000000000000000000000000000000000000006044820152606401610a91565b73ffffffffffffffffffffffffffffffffffffffff81168114611981575f80fd5b50565b5f805f60608486031215611996575f80fd5b833592506020840135915060408401356119af81611960565b809150509250925092565b5f805f606084860312156119cc575f80fd5b83356119d781611960565b925060208401356119e781611960565b929592945050506040919091013590565b5f60208284031215611a08575f80fd5b5035919050565b5f60208284031215611a1f575f80fd5b5051919050565b5f60208284031215611a36575f80fd5b81518015158114611a45575f80fd5b9392505050565b5f6101008201905073ffffffffffffffffffffffffffffffffffffffff80845116835280602085015116602084015262ffffff6040850151166040840152806060850151166060840152506080830151608083015260a083015160a083015260c083015160c083015260e0830151611adc60e084018273ffffffffffffffffffffffffffffffffffffffff169052565b5092915050565b5f82515f5b81811015611b025760208186018101518583015201611ae8565b505f92019182525091905056fea2646970667358221220ec7e326d9081fbddfdab831a3d51158042048c37910e9ae2f43ba210d4b931d864736f6c63430008180033","linkReferences":{}},"methodIdentifiers":{"USDT()":"c54e44eb","USDe()":"d1609502","curvePool()":"218751b2","curveUsdeIndex()":"bf7f86ed","curveUsdtIndex()":"62157470","owner()":"8da5cb5b","quoteUSDTtoUSDe(uint256)":"e854f9cc","quoteUSDetoUSDT(uint256)":"aeabdfc7","rescue(address,address,uint256)":"20ff430b","swapExactUSDTForUSDe(uint256,uint256,address)":"c2311496","swapExactUSDeForUSDT(uint256,uint256,address)":"0536ddbc","uniFee()":"2c2a5126","uniQuoter()":"b40a2e1e","uniRouter()":"a0e47bf6"},"id":5}