{"abi":[{"type":"constructor","inputs":[{"name":"usdt","type":"address","internalType":"address"},{"name":"usde","type":"address","internalType":"address"}],"stateMutability":"nonpayable"},{"type":"function","name":"USDT","inputs":[],"outputs":[{"name":"","type":"address","internalType":"contract IERC20"}],"stateMutability":"view"},{"type":"function","name":"USDe","inputs":[],"outputs":[{"name":"","type":"address","internalType":"contract IERC20"}],"stateMutability":"view"},{"type":"function","name":"quoteUSDTtoUSDe","inputs":[{"name":"usdtIn","type":"uint256","internalType":"uint256"}],"outputs":[{"name":"","type":"uint256","internalType":"uint256"}],"stateMutability":"view"},{"type":"function","name":"quoteUSDetoUSDT","inputs":[{"name":"usdeIn","type":"uint256","internalType":"uint256"}],"outputs":[{"name":"","type":"uint256","internalType":"uint256"}],"stateMutability":"view"},{"type":"function","name":"rateUSDTtoUSDe","inputs":[],"outputs":[{"name":"","type":"uint256","internalType":"uint256"}],"stateMutability":"view"},{"type":"function","name":"setRate","inputs":[{"name":"usdtToUsde","type":"uint256","internalType":"uint256"}],"outputs":[],"stateMutability":"nonpayable"},{"type":"function","name":"swapExactUSDTForUSDe","inputs":[{"name":"usdtIn","type":"uint256","internalType":"uint256"},{"name":"minUsdeOut","type":"uint256","internalType":"uint256"},{"name":"to","type":"address","internalType":"address"}],"outputs":[{"name":"","type":"uint256","internalType":"uint256"}],"stateMutability":"nonpayable"},{"type":"function","name":"swapExactUSDeForUSDT","inputs":[{"name":"usdeIn","type":"uint256","internalType":"uint256"},{"name":"minUsdtOut","type":"uint256","internalType":"uint256"},{"name":"to","type":"address","internalType":"address"}],"outputs":[{"name":"","type":"uint256","internalType":"uint256"}],"stateMutability":"nonpayable"}],"bytecode":{"object":"0x60c060405264e8d4a510005f55348015610017575f80fd5b5060405161092838038061092883398101604081905261003691610068565b6001600160a01b039182166080521660a052610099565b80516001600160a01b0381168114610063575f80fd5b919050565b5f8060408385031215610079575f80fd5b6100828361004d565b91506100906020840161004d565b90509250929050565b60805160a0516108536100d55f395f8181610142015281816101b4015261063e01525f818160f601528181610366015261049101526108535ff3fe608060405234801561000f575f80fd5b5060043610610085575f3560e01c8063c231149611610058578063c2311496146100de578063c54e44eb146100f1578063d16095021461013d578063e854f9cc14610164575f80fd5b80630536ddbc1461008957806334fcf437146100af578063359a053f146100c3578063aeabdfc7146100cb575b5f80fd5b61009c61009736600461071e565b610177565b6040519081526020015b60405180910390f35b6100c16100bd36600461076c565b5f55565b005b61009c5f5481565b61009c6100d936600461076c565b61043e565b61009c6100ec36600461071e565b610454565b6101187f000000000000000000000000000000000000000000000000000000000000000081565b60405173ffffffffffffffffffffffffffffffffffffffff90911681526020016100a6565b6101187f000000000000000000000000000000000000000000000000000000000000000081565b61009c61017236600461076c565b61070e565b6040517f23b872dd000000000000000000000000000000000000000000000000000000008152336004820152306024820152604481018490525f907f000000000000000000000000000000000000000000000000000000000000000073ffffffffffffffffffffffffffffffffffffffff16906323b872dd906064016020604051808303815f875af115801561020f573d5f803e3d5ffd5b505050506040513d601f19601f820116820180604052508101906102339190610783565b61029e576040517f08c379a000000000000000000000000000000000000000000000000000000000815260206004820152600960248201527f70756c6c2055534465000000000000000000000000000000000000000000000060448201526064015b60405180910390fd5b5f6102ae64e8d4a51000866107a9565b90508381101561031a576040517f08c379a000000000000000000000000000000000000000000000000000000000815260206004820152600360248201527f6d696e00000000000000000000000000000000000000000000000000000000006044820152606401610295565b6040517fa9059cbb00000000000000000000000000000000000000000000000000000000815273ffffffffffffffffffffffffffffffffffffffff8481166004830152602482018390527f0000000000000000000000000000000000000000000000000000000000000000169063a9059cbb906044016020604051808303815f875af11580156103ac573d5f803e3d5ffd5b505050506040513d601f19601f820116820180604052508101906103d09190610783565b610436576040517f08c379a000000000000000000000000000000000000000000000000000000000815260206004820152600960248201527f78666572205553445400000000000000000000000000000000000000000000006044820152606401610295565b949350505050565b5f61044e64e8d4a51000836107a9565b92915050565b6040517f23b872dd000000000000000000000000000000000000000000000000000000008152336004820152306024820152604481018490525f907f000000000000000000000000000000000000000000000000000000000000000073ffffffffffffffffffffffffffffffffffffffff16906323b872dd906064016020604051808303815f875af11580156104ec573d5f803e3d5ffd5b505050506040513d601f19601f820116820180604052508101906105109190610783565b610576576040517f08c379a000000000000000000000000000000000000000000000000000000000815260206004820152600960248201527f70756c6c205553445400000000000000000000000000000000000000000000006044820152606401610295565b5f6105868564e8d4a510006107e1565b9050838110156105f2576040517f08c379a000000000000000000000000000000000000000000000000000000000815260206004820152600360248201527f6d696e00000000000000000000000000000000000000000000000000000000006044820152606401610295565b6040517fa9059cbb00000000000000000000000000000000000000000000000000000000815273ffffffffffffffffffffffffffffffffffffffff8481166004830152602482018390527f0000000000000000000000000000000000000000000000000000000000000000169063a9059cbb906044016020604051808303815f875af1158015610684573d5f803e3d5ffd5b505050506040513d601f19601f820116820180604052508101906106a89190610783565b610436576040517f08c379a000000000000000000000000000000000000000000000000000000000815260206004820152600960248201527f78666572205553446500000000000000000000000000000000000000000000006044820152606401610295565b5f61044e8264e8d4a510006107e1565b5f805f60608486031215610730575f80fd5b8335925060208401359150604084013573ffffffffffffffffffffffffffffffffffffffff81168114610761575f80fd5b809150509250925092565b5f6020828403121561077c575f80fd5b5035919050565b5f60208284031215610793575f80fd5b815180151581146107a2575f80fd5b9392505050565b5f826107dc577f4e487b71000000000000000000000000000000000000000000000000000000005f52601260045260245ffd5b500490565b808202811582820484141761044e577f4e487b71000000000000000000000000000000000000000000000000000000005f52601160045260245ffdfea2646970667358221220c6c219169a2bb46806c3acb463fd62c94da40e5bed547f4d90de013899ff875964736f6c63430008180033","linkReferences":{}},"methodIdentifiers":{"USDT()":"c54e44eb","USDe()":"d1609502","quoteUSDTtoUSDe(uint256)":"e854f9cc","quoteUSDetoUSDT(uint256)":"aeabdfc7","rateUSDTtoUSDe()":"359a053f","setRate(uint256)":"34fcf437","swapExactUSDTForUSDe(uint256,uint256,address)":"c2311496","swapExactUSDeForUSDT(uint256,uint256,address)":"0536ddbc"},"id":15}