{"abi":[{"type":"constructor","inputs":[{"name":"name_","type":"string","internalType":"string"},{"name":"symbol_","type":"string","internalType":"string"}],"stateMutability":"nonpayable"},{"type":"function","name":"_decimals","inputs":[],"outputs":[{"name":"","type":"uint8","internalType":"uint8"}],"stateMutability":"view"},{"type":"function","name":"allowance","inputs":[{"name":"","type":"address","internalType":"address"},{"name":"","type":"address","internalType":"address"}],"outputs":[{"name":"","type":"uint256","internalType":"uint256"}],"stateMutability":"view"},{"type":"function","name":"approve","inputs":[{"name":"spender","type":"address","internalType":"address"},{"name":"amount","type":"uint256","internalType":"uint256"}],"outputs":[{"name":"","type":"bool","internalType":"bool"}],"stateMutability":"nonpayable"},{"type":"function","name":"balanceOf","inputs":[{"name":"","type":"address","internalType":"address"}],"outputs":[{"name":"","type":"uint256","internalType":"uint256"}],"stateMutability":"view"},{"type":"function","name":"decimals","inputs":[],"outputs":[{"name":"","type":"uint8","internalType":"uint8"}],"stateMutability":"view"},{"type":"function","name":"name","inputs":[],"outputs":[{"name":"","type":"string","internalType":"string"}],"stateMutability":"view"},{"type":"function","name":"symbol","inputs":[],"outputs":[{"name":"","type":"string","internalType":"string"}],"stateMutability":"view"},{"type":"function","name":"totalSupply","inputs":[],"outputs":[{"name":"","type":"uint256","internalType":"uint256"}],"stateMutability":"view"},{"type":"function","name":"transfer","inputs":[{"name":"to","type":"address","internalType":"address"},{"name":"amount","type":"uint256","internalType":"uint256"}],"outputs":[{"name":"","type":"bool","internalType":"bool"}],"stateMutability":"nonpayable"},{"type":"function","name":"transferFrom","inputs":[{"name":"from","type":"address","internalType":"address"},{"name":"to","type":"address","internalType":"address"},{"name":"amount","type":"uint256","internalType":"uint256"}],"outputs":[{"name":"","type":"bool","internalType":"bool"}],"stateMutability":"nonpayable"},{"type":"event","name":"Approval","inputs":[{"name":"owner","type":"address","indexed":true,"internalType":"address"},{"name":"spender","type":"address","indexed":true,"internalType":"address"},{"name":"value","type":"uint256","indexed":false,"internalType":"uint256"}],"anonymous":false},{"type":"event","name":"Transfer","inputs":[{"name":"from","type":"address","indexed":true,"internalType":"address"},{"name":"to","type":"address","indexed":true,"internalType":"address"},{"name":"value","type":"uint256","indexed":false,"internalType":"uint256"}],"anonymous":false}],"bytecode":{"object":"0x60806040526002805460ff191660121790553480156200001d575f80fd5b5060405162000a6b38038062000a6b833981016040819052620000409162000126565b5f6200004d838262000216565b5060016200005c828262000216565b505050620002e2565b634e487b7160e01b5f52604160045260245ffd5b5f82601f83011262000089575f80fd5b81516001600160401b0380821115620000a657620000a662000065565b604051601f8301601f19908116603f01168101908282118183101715620000d157620000d162000065565b8160405283815260209250866020858801011115620000ee575f80fd5b5f91505b83821015620001115785820183015181830184015290820190620000f2565b5f602085830101528094505050505092915050565b5f806040838503121562000138575f80fd5b82516001600160401b03808211156200014f575f80fd5b6200015d8683870162000079565b9350602085015191508082111562000173575f80fd5b50620001828582860162000079565b9150509250929050565b600181811c90821680620001a157607f821691505b602082108103620001c057634e487b7160e01b5f52602260045260245ffd5b50919050565b601f8211156200021157805f5260205f20601f840160051c81016020851015620001ed5750805b601f840160051c820191505b818110156200020e575f8155600101620001f9565b50505b505050565b81516001600160401b0381111562000232576200023262000065565b6200024a816200024384546200018c565b84620001c6565b602080601f83116001811462000280575f8415620002685750858301515b5f19600386901b1c1916600185901b178555620002da565b5f85815260208120601f198616915b82811015620002b0578886015182559484019460019091019084016200028f565b5085821015620002ce57878501515f19600388901b60f8161c191681555b505060018460011b0185555b505050505050565b61077b80620002f05f395ff3fe608060405234801561000f575f80fd5b50600436106100b9575f3560e01c806332424aa31161007257806395d89b411161005857806395d89b411461016d578063a9059cbb14610175578063dd62ed3e14610188575f80fd5b806332424aa31461014157806370a082311461014e575f80fd5b806318160ddd116100a257806318160ddd146100fe57806323b872dd14610115578063313ce56714610128575f80fd5b806306fdde03146100bd578063095ea7b3146100db575b5f80fd5b6100c56101b2565b6040516100d2919061055d565b60405180910390f35b6100ee6100e93660046105ef565b61023d565b60405190151581526020016100d2565b61010760035481565b6040519081526020016100d2565b6100ee610123366004610617565b6102b6565b60025460ff165b60405160ff90911681526020016100d2565b60025461012f9060ff1681565b61010761015c366004610650565b60046020525f908152604090205481565b6100c56103cd565b6100ee6101833660046105ef565b6103da565b610107610196366004610670565b600560209081525f928352604080842090915290825290205481565b5f80546101be906106a1565b80601f01602080910402602001604051908101604052809291908181526020018280546101ea906106a1565b80156102355780601f1061020c57610100808354040283529160200191610235565b820191905f5260205f20905b81548152906001019060200180831161021857829003601f168201915b505050505081565b335f81815260056020908152604080832073ffffffffffffffffffffffffffffffffffffffff8716808552925280832085905551919290917f8c5be1e5ebec7d5bd14f71427d1e84f3dd0314c0f7b2291e5b200ac8c7c3b925906102a49086815260200190565b60405180910390a35060015b92915050565b73ffffffffffffffffffffffffffffffffffffffff83165f90815260056020908152604080832033845290915281205482811015610355576040517f08c379a000000000000000000000000000000000000000000000000000000000815260206004820152600960248201527f616c6c6f77616e6365000000000000000000000000000000000000000000000060448201526064015b60405180910390fd5b7fffffffffffffffffffffffffffffffffffffffffffffffffffffffffffffffff81146103b757610386838261071f565b73ffffffffffffffffffffffffffffffffffffffff86165f9081526005602090815260408083203384529091529020555b6103c28585856103ef565b506001949350505050565b600180546101be906106a1565b5f6103e63384846103ef565b50600192915050565b73ffffffffffffffffffffffffffffffffffffffff83165f9081526004602052604090205481111561047d576040517f08c379a000000000000000000000000000000000000000000000000000000000815260206004820152600360248201527f62616c0000000000000000000000000000000000000000000000000000000000604482015260640161034c565b73ffffffffffffffffffffffffffffffffffffffff83165f90815260046020526040812080548392906104b190849061071f565b909155505073ffffffffffffffffffffffffffffffffffffffff82165f90815260046020526040812080548392906104ea908490610732565b925050819055508173ffffffffffffffffffffffffffffffffffffffff168373ffffffffffffffffffffffffffffffffffffffff167fddf252ad1be2c89b69c2b068fc378daa952ba7f163c4a11628f55a4df523b3ef8360405161055091815260200190565b60405180910390a3505050565b5f602080835283518060208501525f5b818110156105895785810183015185820160400152820161056d565b505f6040828601015260407fffffffffffffffffffffffffffffffffffffffffffffffffffffffffffffffe0601f8301168501019250505092915050565b803573ffffffffffffffffffffffffffffffffffffffff811681146105ea575f80fd5b919050565b5f8060408385031215610600575f80fd5b610609836105c7565b946020939093013593505050565b5f805f60608486031215610629575f80fd5b610632846105c7565b9250610640602085016105c7565b9150604084013590509250925092565b5f60208284031215610660575f80fd5b610669826105c7565b9392505050565b5f8060408385031215610681575f80fd5b61068a836105c7565b9150610698602084016105c7565b90509250929050565b600181811c908216806106b557607f821691505b6020821081036106ec577f4e487b71000000000000000000000000000000000000000000000000000000005f52602260045260245ffd5b50919050565b7f4e487b71000000000000000000000000000000000000000000000000000000005f52601160045260245ffd5b818103818111156102b0576102b06106f2565b808201808211156102b0576102b06106f256fea26469706673582212208bb7d9c75c1100bccd43dbe973403db9f0f86aae78d4bceedbc0159f73d25b4264736f6c63430008180033","linkReferences":{}},"methodIdentifiers":{"_decimals()":"32424aa3","allowance(address,address)":"dd62ed3e","approve(address,uint256)":"095ea7b3","balanceOf(address)":"70a08231","decimals()":"313ce567","name()":"06fdde03","symbol()":"95d89b41","totalSupply()":"18160ddd","transfer(address,uint256)":"a9059cbb","transferFrom(address,address,uint256)":"23b872dd"},"id":17}