{"abi":[{"type":"constructor","inputs":[{"name":"usde","type":"address","internalType":"address"},{"name":"s","type":"address","internalType":"address"}],"stateMutability":"nonpayable"},{"type":"function","name":"USDe","inputs":[],"outputs":[{"name":"","type":"address","internalType":"contract IERC20"}],"stateMutability":"view"},{"type":"function","name":"exchangeRateWad","inputs":[],"outputs":[{"name":"","type":"uint256","internalType":"uint256"}],"stateMutability":"view"},{"type":"function","name":"previewRedeem","inputs":[{"name":"sShares","type":"uint256","internalType":"uint256"}],"outputs":[{"name":"","type":"uint256","internalType":"uint256"}],"stateMutability":"view"},{"type":"function","name":"sUSDe","inputs":[],"outputs":[{"name":"","type":"address","internalType":"contract MockSUSDe"}],"stateMutability":"view"},{"type":"function","name":"sUSDeBalance","inputs":[],"outputs":[{"name":"","type":"uint256","internalType":"uint256"}],"stateMutability":"view"},{"type":"function","name":"setExchangeRate","inputs":[{"name":"wad","type":"uint256","internalType":"uint256"}],"outputs":[],"stateMutability":"nonpayable"},{"type":"function","name":"stake","inputs":[{"name":"usdeAmount","type":"uint256","internalType":"uint256"}],"outputs":[{"name":"sharesMinted","type":"uint256","internalType":"uint256"}],"stateMutability":"nonpayable"},{"type":"function","name":"unstake","inputs":[{"name":"sShares","type":"uint256","internalType":"uint256"}],"outputs":[{"name":"usdeOut","type":"uint256","internalType":"uint256"}],"stateMutability":"nonpayable"}],"bytecode":{"object":"0x6080604052670de0b6b3a764000060025534801561001b575f80fd5b5060405161074138038061074183398101604081905261003a91610085565b5f80546001600160a01b039384166001600160a01b031991821617909155600180549290931691161790556100b6565b80516001600160a01b0381168114610080575f80fd5b919050565b5f8060408385031215610096575f80fd5b61009f8361006a565b91506100ad6020840161006a565b90509250929050565b61067e806100c35f395ff3fe608060405234801561000f575f80fd5b5060043610610085575f3560e01c8063a694fc3a11610058578063a694fc3a146100d3578063d1609502146100e6578063db068e0e1461012a578063e0d05d391461013f575f80fd5b80632e17de78146100895780634736afa1146100af5780634cdad506146100b757806391a42389146100ca575b5f80fd5b61009c610097366004610580565b61015f565b6040519081526020015b60405180910390f35b61009c610313565b61009c6100c5366004610580565b6103a8565b61009c60025481565b61009c6100e1366004610580565b6103d0565b5f546101059073ffffffffffffffffffffffffffffffffffffffff1681565b60405173ffffffffffffffffffffffffffffffffffffffff90911681526020016100a6565b61013d610138366004610580565b600255565b005b6001546101059073ffffffffffffffffffffffffffffffffffffffff1681565b6001546040517f9dc29fac000000000000000000000000000000000000000000000000000000008152336004820152602481018390525f9173ffffffffffffffffffffffffffffffffffffffff1690639dc29fac906044015f604051808303815f87803b1580156101ce575f80fd5b505af11580156101e0573d5f803e3d5ffd5b50505050670de0b6b3a7640000600254836101fb9190610597565b61020591906105d3565b5f546040517fa9059cbb0000000000000000000000000000000000000000000000000000000081523360048201526024810183905291925073ffffffffffffffffffffffffffffffffffffffff169063a9059cbb906044016020604051808303815f875af1158015610279573d5f803e3d5ffd5b505050506040513d601f19601f8201168201806040525081019061029d919061060b565b61030e576040517f08c379a00000000000000000000000000000000000000000000000000000000081526004016103059060208082526004908201527f7075736800000000000000000000000000000000000000000000000000000000604082015260600190565b60405180910390fd5b919050565b6001546040517f70a082310000000000000000000000000000000000000000000000000000000081523360048201525f9173ffffffffffffffffffffffffffffffffffffffff16906370a0823190602401602060405180830381865afa15801561037f573d5f803e3d5ffd5b505050506040513d601f19601f820116820180604052508101906103a39190610631565b905090565b5f670de0b6b3a7640000600254836103c09190610597565b6103ca91906105d3565b92915050565b5f80546040517f23b872dd0000000000000000000000000000000000000000000000000000000081523360048201523060248201526044810184905273ffffffffffffffffffffffffffffffffffffffff909116906323b872dd906064016020604051808303815f875af115801561044a573d5f803e3d5ffd5b505050506040513d601f19601f8201168201806040525081019061046e919061060b565b6104d6576040517f08c379a00000000000000000000000000000000000000000000000000000000081526004016103059060208082526004908201527f70756c6c00000000000000000000000000000000000000000000000000000000604082015260600190565b6002546104eb83670de0b6b3a7640000610597565b6104f591906105d3565b6001546040517f40c10f190000000000000000000000000000000000000000000000000000000081523360048201526024810183905291925073ffffffffffffffffffffffffffffffffffffffff16906340c10f19906044015f604051808303815f87803b158015610565575f80fd5b505af1158015610577573d5f803e3d5ffd5b50505050919050565b5f60208284031215610590575f80fd5b5035919050565b80820281158282048414176103ca577f4e487b71000000000000000000000000000000000000000000000000000000005f52601160045260245ffd5b5f82610606577f4e487b71000000000000000000000000000000000000000000000000000000005f52601260045260245ffd5b500490565b5f6020828403121561061b575f80fd5b8151801515811461062a575f80fd5b9392505050565b5f60208284031215610641575f80fd5b505191905056fea26469706673582212207276e2eaf49b31a2f4e5bd66efebef40761ff6854b6b160150ac4b7478f0271864736f6c63430008180033","linkReferences":{}},"methodIdentifiers":{"USDe()":"d1609502","exchangeRateWad()":"91a42389","previewRedeem(uint256)":"4cdad506","sUSDe()":"e0d05d39","sUSDeBalance()":"4736afa1","setExchangeRate(uint256)":"db068e0e","stake(uint256)":"a694fc3a","unstake(uint256)":"2e17de78"},"id":13}