{"abi":[{"type":"function","name":"bridgeUSDT","inputs":[{"name":"dstChainId","type":"uint16","internalType":"uint16"},{"name":"dstAddress","type":"address","internalType":"address"},{"name":"amount","type":"uint256","internalType":"uint256"},{"name":"","type":"uint256","internalType":"uint256"},{"name":"","type":"bytes","internalType":"bytes"}],"outputs":[],"stateMutability":"payable"},{"type":"event","name":"BridgeUSDT","inputs":[{"name":"dstChainId","type":"uint16","indexed":false,"internalType":"uint16"},{"name":"dstAddress","type":"address","indexed":false,"internalType":"address"},{"name":"amount","type":"uint256","indexed":false,"internalType":"uint256"}],"anonymous":false},{"type":"event","name":"Bridged","inputs":[{"name":"dst","type":"uint16","indexed":false,"internalType":"uint16"},{"name":"to","type":"address","indexed":false,"internalType":"address"},{"name":"amt","type":"uint256","indexed":false,"internalType":"uint256"}],"anonymous":false}],"bytecode":{"object":"0x608060405234801561000f575f80fd5b506101e88061001d5f395ff3fe60806040526004361061001d575f3560e01c806399eea33514610021575b5f80fd5b61003461002f3660046100f2565b610036565b005b6040805161ffff8816815273ffffffffffffffffffffffffffffffffffffffff871660208201529081018590527f35a96b7d4d868f8bf28bf2ca444787e3b4cb84ea5366ab3ac90053a81564aed79060600160405180910390a16040805161ffff8816815273ffffffffffffffffffffffffffffffffffffffff871660208201529081018590527f80f089699fd0f2bd2beca5e14f9f10f1f9c66b611430a42b0826fe0daf3f22cb9060600160405180910390a1505050505050565b5f805f805f8060a08789031215610107575f80fd5b863561ffff81168114610118575f80fd5b9550602087013573ffffffffffffffffffffffffffffffffffffffff81168114610140575f80fd5b94506040870135935060608701359250608087013567ffffffffffffffff8082111561016a575f80fd5b818901915089601f83011261017d575f80fd5b81358181111561018b575f80fd5b8a602082850101111561019c575f80fd5b602083019450809350505050929550929550929556fea26469706673582212202b3d0c19977cd222540ee4d11ffbccd681d07ecce347c3e47496e9cf95a5d4a964736f6c63430008180033","linkReferences":{}},"methodIdentifiers":{"bridgeUSDT(uint16,address,uint256,uint256,bytes)":"99eea335"},"id":14}