{"abi":[{"type":"constructor","inputs":[],"stateMutability":"nonpayable"},{"type":"function","name":"_decimals","inputs":[],"outputs":[{"name":"","type":"uint8","internalType":"uint8"}],"stateMutability":"view"},{"type":"function","name":"allowance","inputs":[{"name":"","type":"address","internalType":"address"},{"name":"","type":"address","internalType":"address"}],"outputs":[{"name":"","type":"uint256","internalType":"uint256"}],"stateMutability":"view"},{"type":"function","name":"approve","inputs":[{"name":"spender","type":"address","internalType":"address"},{"name":"amount","type":"uint256","internalType":"uint256"}],"outputs":[{"name":"","type":"bool","internalType":"bool"}],"stateMutability":"nonpayable"},{"type":"function","name":"balanceOf","inputs":[{"name":"","type":"address","internalType":"address"}],"outputs":[{"name":"","type":"uint256","internalType":"uint256"}],"stateMutability":"view"},{"type":"function","name":"burn","inputs":[{"name":"from","type":"address","internalType":"address"},{"name":"amt","type":"uint256","internalType":"uint256"}],"outputs":[],"stateMutability":"nonpayable"},{"type":"function","name":"decimals","inputs":[],"outputs":[{"name":"","type":"uint8","internalType":"uint8"}],"stateMutability":"view"},{"type":"function","name":"mint","inputs":[{"name":"to","type":"address","internalType":"address"},{"name":"amt","type":"uint256","internalType":"uint256"}],"outputs":[],"stateMutability":"nonpayable"},{"type":"function","name":"name","inputs":[],"outputs":[{"name":"","type":"string","internalType":"string"}],"stateMutability":"view"},{"type":"function","name":"symbol","inputs":[],"outputs":[{"name":"","type":"string","internalType":"string"}],"stateMutability":"view"},{"type":"function","name":"totalSupply","inputs":[],"outputs":[{"name":"","type":"uint256","internalType":"uint256"}],"stateMutability":"view"},{"type":"function","name":"transfer","inputs":[{"name":"to","type":"address","internalType":"address"},{"name":"amount","type":"uint256","internalType":"uint256"}],"outputs":[{"name":"","type":"bool","internalType":"bool"}],"stateMutability":"nonpayable"},{"type":"function","name":"transferFrom","inputs":[{"name":"from","type":"address","internalType":"address"},{"name":"to","type":"address","internalType":"address"},{"name":"amount","type":"uint256","internalType":"uint256"}],"outputs":[{"name":"","type":"bool","internalType":"bool"}],"stateMutability":"nonpayable"},{"type":"event","name":"Approval","inputs":[{"name":"owner","type":"address","indexed":true,"internalType":"address"},{"name":"spender","type":"address","indexed":true,"internalType":"address"},{"name":"value","type":"uint256","indexed":false,"internalType":"uint256"}],"anonymous":false},{"type":"event","name":"Transfer","inputs":[{"name":"from","type":"address","indexed":true,"internalType":"address"},{"name":"to","type":"address","indexed":true,"internalType":"address"},{"name":"value","type":"uint256","indexed":false,"internalType":"uint256"}],"anonymous":false}],"bytecode":{"object":"0x60806040526002805460ff191660121790553480156200001d575f80fd5b50604051806040016040528060128152602001715374616b6564205553446520286d6f636b2960701b81525060405180604001604052806005815260200164735553446560d81b815250815f9081620000779190620001c9565b506001620000868282620001c9565b5050506200009b335f620000a160201b60201c565b620002bb565b8060035f828254620000b4919062000295565b90915550506001600160a01b0382165f9081526004602052604081208054839290620000e290849062000295565b90915550506040518181526001600160a01b038316905f907fddf252ad1be2c89b69c2b068fc378daa952ba7f163c4a11628f55a4df523b3ef9060200160405180910390a35050565b634e487b7160e01b5f52604160045260245ffd5b600181811c908216806200015457607f821691505b6020821081036200017357634e487b7160e01b5f52602260045260245ffd5b50919050565b601f821115620001c457805f5260205f20601f840160051c81016020851015620001a05750805b601f840160051c820191505b81811015620001c1575f8155600101620001ac565b50505b505050565b81516001600160401b03811115620001e557620001e56200012b565b620001fd81620001f684546200013f565b8462000179565b602080601f83116001811462000233575f84156200021b5750858301515b5f19600386901b1c1916600185901b1785556200028d565b5f85815260208120601f198616915b82811015620002635788860151825594840194600190910190840162000242565b50858210156200028157878501515f19600388901b60f8161c191681555b505060018460011b0185555b505050505050565b80820180821115620002b557634e487b7160e01b5f52601160045260245ffd5b92915050565b61099b80620002c95f395ff3fe608060405234801561000f575f80fd5b50600436106100cf575f3560e01c806340c10f191161007d5780639dc29fac116100585780639dc29fac146101a0578063a9059cbb146101b3578063dd62ed3e146101c6575f80fd5b806340c10f191461016457806370a082311461017957806395d89b4114610198575f80fd5b806323b872dd116100ad57806323b872dd1461012b578063313ce5671461013e57806332424aa314610157575f80fd5b806306fdde03146100d3578063095ea7b3146100f157806318160ddd14610114575b5f80fd5b6100db6101f0565b6040516100e8919061077d565b60405180910390f35b6101046100ff36600461080f565b61027b565b60405190151581526020016100e8565b61011d60035481565b6040519081526020016100e8565b610104610139366004610837565b6102f4565b60025460ff165b60405160ff90911681526020016100e8565b6002546101459060ff1681565b61017761017236600461080f565b61040b565b005b61011d610187366004610870565b60046020525f908152604090205481565b6100db610419565b6101776101ae36600461080f565b610426565b6101046101c136600461080f565b610430565b61011d6101d4366004610890565b600560209081525f928352604080842090915290825290205481565b5f80546101fc906108c1565b80601f0160208091040260200160405190810160405280929190818152602001828054610228906108c1565b80156102735780601f1061024a57610100808354040283529160200191610273565b820191905f5260205f20905b81548152906001019060200180831161025657829003601f168201915b505050505081565b335f81815260056020908152604080832073ffffffffffffffffffffffffffffffffffffffff8716808552925280832085905551919290917f8c5be1e5ebec7d5bd14f71427d1e84f3dd0314c0f7b2291e5b200ac8c7c3b925906102e29086815260200190565b60405180910390a35060015b92915050565b73ffffffffffffffffffffffffffffffffffffffff83165f90815260056020908152604080832033845290915281205482811015610393576040517f08c379a000000000000000000000000000000000000000000000000000000000815260206004820152600960248201527f616c6c6f77616e6365000000000000000000000000000000000000000000000060448201526064015b60405180910390fd5b7fffffffffffffffffffffffffffffffffffffffffffffffffffffffffffffffff81146103f5576103c4838261093f565b73ffffffffffffffffffffffffffffffffffffffff86165f9081526005602090815260408083203384529091529020555b610400858585610445565b506001949350505050565b61041582826105b3565b5050565b600180546101fc906108c1565b6104158282610654565b5f61043c338484610445565b50600192915050565b73ffffffffffffffffffffffffffffffffffffffff83165f908152600460205260409020548111156104d3576040517f08c379a000000000000000000000000000000000000000000000000000000000815260206004820152600360248201527f62616c0000000000000000000000000000000000000000000000000000000000604482015260640161038a565b73ffffffffffffffffffffffffffffffffffffffff83165f908152600460205260408120805483929061050790849061093f565b909155505073ffffffffffffffffffffffffffffffffffffffff82165f9081526004602052604081208054839290610540908490610952565b925050819055508173ffffffffffffffffffffffffffffffffffffffff168373ffffffffffffffffffffffffffffffffffffffff167fddf252ad1be2c89b69c2b068fc378daa952ba7f163c4a11628f55a4df523b3ef836040516105a691815260200190565b60405180910390a3505050565b8060035f8282546105c49190610952565b909155505073ffffffffffffffffffffffffffffffffffffffff82165f90815260046020526040812080548392906105fd908490610952565b909155505060405181815273ffffffffffffffffffffffffffffffffffffffff8316905f907fddf252ad1be2c89b69c2b068fc378daa952ba7f163c4a11628f55a4df523b3ef906020015b60405180910390a35050565b73ffffffffffffffffffffffffffffffffffffffff82165f908152600460205260409020548111156106e2576040517f08c379a000000000000000000000000000000000000000000000000000000000815260206004820152600360248201527f62616c0000000000000000000000000000000000000000000000000000000000604482015260640161038a565b73ffffffffffffffffffffffffffffffffffffffff82165f908152600460205260408120805483929061071690849061093f565b925050819055508060035f82825461072e919061093f565b90915550506040518181525f9073ffffffffffffffffffffffffffffffffffffffff8416907fddf252ad1be2c89b69c2b068fc378daa952ba7f163c4a11628f55a4df523b3ef90602001610648565b5f602080835283518060208501525f5b818110156107a95785810183015185820160400152820161078d565b505f6040828601015260407fffffffffffffffffffffffffffffffffffffffffffffffffffffffffffffffe0601f8301168501019250505092915050565b803573ffffffffffffffffffffffffffffffffffffffff8116811461080a575f80fd5b919050565b5f8060408385031215610820575f80fd5b610829836107e7565b946020939093013593505050565b5f805f60608486031215610849575f80fd5b610852846107e7565b9250610860602085016107e7565b9150604084013590509250925092565b5f60208284031215610880575f80fd5b610889826107e7565b9392505050565b5f80604083850312156108a1575f80fd5b6108aa836107e7565b91506108b8602084016107e7565b90509250929050565b600181811c908216806108d557607f821691505b60208210810361090c577f4e487b71000000000000000000000000000000000000000000000000000000005f52602260045260245ffd5b50919050565b7f4e487b71000000000000000000000000000000000000000000000000000000005f52601160045260245ffd5b818103818111156102ee576102ee610912565b808201808211156102ee576102ee61091256fea26469706673582212209dd6d15262e8434d8cd16f83c8bbd97a2e82722a8fa83129affc1e9ca3d117e764736f6c63430008180033","linkReferences":{}},"methodIdentifiers":{"_decimals()":"32424aa3","allowance(address,address)":"dd62ed3e","approve(address,uint256)":"095ea7b3","balanceOf(address)":"70a08231","burn(address,uint256)":"9dc29fac","decimals()":"313ce567","mint(address,uint256)":"40c10f19","name()":"06fdde03","symbol()":"95d89b41","totalSupply()":"18160ddd","transfer(address,uint256)":"a9059cbb","transferFrom(address,address,uint256)":"23b872dd"},"id":16}