{"abi":[{"type":"constructor","inputs":[{"name":"usdt","type":"address","internalType":"address"},{"name":"usde","type":"address","internalType":"address"},{"name":"sUsde","type":"address","internalType":"address"},{"name":"swapAdapter","type":"address","internalType":"address"},{"name":"stakingAdapter","type":"address","internalType":"address"},{"name":"bridgeAdapter","type":"address","internalType":"address"},{"name":"_kaiaChainId","type":"uint16","internalType":"uint16"},{"name":"_kaiaRecipient","type":"address","internalType":"address"},{"name":"_slippageBps","type":"uint256","internalType":"uint256"},{"name":"_owner","type":"address","internalType":"address"}],"stateMutability":"nonpayable"},{"type":"receive","stateMutability":"payable"},{"type":"function","name":"USDT","inputs":[],"outputs":[{"name":"","type":"address","internalType":"contract IERC20"}],"stateMutability":"view"},{"type":"function","name":"USDe","inputs":[],"outputs":[{"name":"","type":"address","internalType":"contract IERC20"}],"stateMutability":"view"},{"type":"function","name":"acceptOwnership","inputs":[],"outputs":[],"stateMutability":"nonpayable"},{"type":"function","name":"bridge","inputs":[],"outputs":[{"name":"","type":"address","internalType":"contract IStargateAdapter"}],"stateMutability":"view"},{"type":"function","name":"canRollover","inputs":[],"outputs":[{"name":"","type":"bool","internalType":"bool"}],"stateMutability":"view"},{"type":"function","name":"epochInfo","inputs":[],"outputs":[{"name":"currentEpoch","type":"uint64","internalType":"uint64"},{"name":"nextRolloverAt","type":"uint64","internalType":"uint64"}],"stateMutability":"view"},{"type":"function","name":"kaiaChainId","inputs":[],"outputs":[{"name":"","type":"uint16","internalType":"uint16"}],"stateMutability":"view"},{"type":"function","name":"kaiaRecipient","inputs":[],"outputs":[{"name":"","type":"address","internalType":"address"}],"stateMutability":"view"},{"type":"function","name":"operator","inputs":[],"outputs":[{"name":"","type":"address","internalType":"address"}],"stateMutability":"view"},{"type":"function","name":"owner","inputs":[],"outputs":[{"name":"","type":"address","internalType":"address"}],"stateMutability":"view"},{"type":"function","name":"pause","inputs":[],"outputs":[],"stateMutability":"nonpayable"},{"type":"function","name":"paused","inputs":[],"outputs":[{"name":"","type":"bool","internalType":"bool"}],"stateMutability":"view"},{"type":"function","name":"pendingOwner","inputs":[],"outputs":[{"name":"","type":"address","internalType":"address"}],"stateMutability":"view"},{"type":"function","name":"queuedWithdrawalUSDT","inputs":[],"outputs":[{"name":"","type":"uint256","internalType":"uint256"}],"stateMutability":"view"},{"type":"function","name":"rolloverEpoch","inputs":[{"name":"stargateExtra","type":"bytes","internalType":"bytes"}],"outputs":[],"stateMutability":"payable"},{"type":"function","name":"sUSDe","inputs":[],"outputs":[{"name":"","type":"address","internalType":"contract IERC20"}],"stateMutability":"view"},{"type":"function","name":"scheduleWithdrawal","inputs":[{"name":"usdtAmount","type":"uint256","internalType":"uint256"}],"outputs":[],"stateMutability":"nonpayable"},{"type":"function","name":"setAdapters","inputs":[{"name":"swapAdapter","type":"address","internalType":"address"},{"name":"stakingAdapter","type":"address","internalType":"address"},{"name":"bridgeAdapter","type":"address","internalType":"address"}],"outputs":[],"stateMutability":"nonpayable"},{"type":"function","name":"setKaiaRecipient","inputs":[{"name":"chainId","type":"uint16","internalType":"uint16"},{"name":"to","type":"address","internalType":"address"}],"outputs":[],"stateMutability":"nonpayable"},{"type":"function","name":"setOperator","inputs":[{"name":"op","type":"address","internalType":"address"}],"outputs":[],"stateMutability":"nonpayable"},{"type":"function","name":"setSlippageBps","inputs":[{"name":"bps","type":"uint256","internalType":"uint256"}],"outputs":[],"stateMutability":"nonpayable"},{"type":"function","name":"slippageBps","inputs":[],"outputs":[{"name":"","type":"uint256","internalType":"uint256"}],"stateMutability":"view"},{"type":"function","name":"staking","inputs":[],"outputs":[{"name":"","type":"address","internalType":"contract IEthenaStakingAdapter"}],"stateMutability":"view"},{"type":"function","name":"swap","inputs":[],"outputs":[{"name":"","type":"address","internalType":"contract ISwapAdapter"}],"stateMutability":"view"},{"type":"function","name":"totalUSDTEquivalent","inputs":[],"outputs":[{"name":"","type":"uint256","internalType":"uint256"}],"stateMutability":"view"},{"type":"function","name":"transferOwnership","inputs":[{"name":"newOwner","type":"address","internalType":"address"}],"outputs":[],"stateMutability":"nonpayable"},{"type":"function","name":"unpause","inputs":[],"outputs":[],"stateMutability":"nonpayable"},{"type":"event","name":"AdaptersUpdated","inputs":[{"name":"swap","type":"address","indexed":false,"internalType":"address"},{"name":"staking","type":"address","indexed":false,"internalType":"address"},{"name":"bridge","type":"address","indexed":false,"internalType":"address"}],"anonymous":false},{"type":"event","name":"EpochRollover","inputs":[{"name":"prevEpoch","type":"uint64","indexed":false,"internalType":"uint64"},{"name":"newEpoch","type":"uint64","indexed":false,"internalType":"uint64"},{"name":"bridgedUSDT","type":"uint256","indexed":false,"internalType":"uint256"},{"name":"stakedUSDe","type":"uint256","indexed":false,"internalType":"uint256"}],"anonymous":false},{"type":"event","name":"KaiaRecipientUpdated","inputs":[{"name":"chainId","type":"uint16","indexed":false,"internalType":"uint16"},{"name":"to","type":"address","indexed":false,"internalType":"address"}],"anonymous":false},{"type":"event","name":"OperatorUpdated","inputs":[{"name":"op","type":"address","indexed":true,"internalType":"address"}],"anonymous":false},{"type":"event","name":"OwnershipTransferStarted","inputs":[{"name":"previousOwner","type":"address","indexed":true,"internalType":"address"},{"name":"newOwner","type":"address","indexed":true,"internalType":"address"}],"anonymous":false},{"type":"event","name":"OwnershipTransferred","inputs":[{"name":"previousOwner","type":"address","indexed":true,"internalType":"address"},{"name":"newOwner","type":"address","indexed":true,"internalType":"address"}],"anonymous":false},{"type":"event","name":"Paused","inputs":[{"name":"account","type":"address","indexed":false,"internalType":"address"}],"anonymous":false},{"type":"event","name":"Unpaused","inputs":[{"name":"account","type":"address","indexed":false,"internalType":"address"}],"anonymous":false},{"type":"event","name":"WithdrawalQueued","inputs":[{"name":"amountUSDT","type":"uint256","indexed":false,"internalType":"uint256"}],"anonymous":false},{"type":"error","name":"RolloverNotDue","inputs":[]}],"bytecode":{"object":"0x60e060405234801562000010575f80fd5b506040516200284038038062002840833981016040819052620000339162000511565b806001600160a01b0381166200007a5760405162461bcd60e51b815260206004820152600760248201526606f776e65723d360cc1b60448201526064015b60405180910390fd5b5f80546001600160a01b0319166001600160a01b03831690811782556040519091907f8be0079c531659141344cd1fd0a4f28419497f9722a3daafe3b4186f6b6457e0908290a35060016002556001600160a01b038a1615801590620000e857506001600160a01b03891615155b8015620000fd57506001600160a01b03881615155b620001385760405162461bcd60e51b815260206004820152600a6024820152692d22a927afaa27a5a2a760b11b604482015260640162000071565b6001600160a01b038716158015906200015957506001600160a01b03861615155b80156200016e57506001600160a01b03851615155b620001ab5760405162461bcd60e51b815260206004820152600c60248201526b2d22a927afa0a220a82a22a960a11b604482015260640162000071565b6001600160a01b038316620001f45760405162461bcd60e51b815260206004820152600e60248201526d16915493d7d49150d2541251539560921b604482015260640162000071565b6064821115620002365760405162461bcd60e51b815260206004820152600c60248201526b0534c49505f4d41585f3130360a41b604482015260640162000071565b6001600160a01b038a811660805289811660a05288811660c05260038054610100600160a81b0319166101008a841602179055600480546001600160a01b031990811689841617909155600580548884166001600160b01b031990911617600160a01b61ffff891602179055600680549091169185169190911790556008829055620002c3600962000356565b600a80546001600160a01b0319166001600160a01b03838116919091179091556003546080516200030092908116916101009004165f19620003ca565b60035460a05162000326916001600160a01b0391821691610100909104165f19620003ca565b60045460a05162000346916001600160a01b0391821691165f19620003ca565b5050505050505050505062000654565b80546001600160c01b031916680100000000000000006001600160401b034290811691909102600160801b600160c01b0319169190911761127560871b178255620003a69062093a8090620005d8565b81546001600160401b0391909116600160c01b026001600160c01b03909116179055565b604080516001600160a01b038416602482015260448082018490528251808303909101815260649091019091526020810180516001600160e01b0390811663095ea7b360e01b17909152620004229185916200042716565b505050565b5f80836001600160a01b031683604051620004439190620005fe565b5f604051808303815f865af19150503d805f81146200047e576040519150601f19603f3d011682016040523d82523d5f602084013e62000483565b606091505b5091509150818015620004b1575080511580620004b1575080806020019051810190620004b191906200062c565b620004ef5760405162461bcd60e51b815260206004820152600d60248201526c115490cc8c17d3d417d1905253609a1b604482015260640162000071565b50505050565b80516001600160a01b03811681146200050c575f80fd5b919050565b5f805f805f805f805f806101408b8d0312156200052c575f80fd5b620005378b620004f5565b99506200054760208c01620004f5565b98506200055760408c01620004f5565b97506200056760608c01620004f5565b96506200057760808c01620004f5565b95506200058760a08c01620004f5565b945060c08b015161ffff811681146200059e575f80fd5b9350620005ae60e08c01620004f5565b92506101008b01519150620005c76101208c01620004f5565b90509295989b9194979a5092959850565b80820180821115620005f857634e487b7160e01b5f52601160045260245ffd5b92915050565b5f82515f5b818110156200061f576020818601810151858301520162000603565b505f920191825250919050565b5f602082840312156200063d575f80fd5b815180151581146200064d575f80fd5b9392505050565b60805160a05160c0516121b36200068d5f395f61054701525f61051401525f81816104b5015281816109bd0152611c2f01526121b35ff3fe6080604052600436106101a7575f3560e01c80638456cb59116100e7578063c5fd297211610087578063e30c397811610062578063e30c397814610569578063e7162ac114610593578063e78cea92146105a6578063f2fde38b146105d2575f80fd5b8063c5fd2972146104d7578063d160950214610503578063e0d05d3914610536575f80fd5b8063b3ab15fb116100c2578063b3ab15fb14610421578063b8ad0e9714610440578063bbc2097f1461045f578063c54e44eb146104a4575f80fd5b80638456cb59146103a75780638da5cb5b146103bb578063b39d6dc8146103e4575f80fd5b8063578c71d91161015257806363a462501161012d57806363a462501461032e5780636cadb2801461034d57806379ba5097146103625780638119c06514610376575f80fd5b8063578c71d9146102d45780635bc4b510146102f75780635c975abb1461030b575f80fd5b80634cf088d9116101825780634cf088d91461023857806350e9dd3914610289578063570ca735146102a8575f80fd5b80631a3ce4e6146101b25780631f1b8a8c146101d35780633f4ba83a14610224575f80fd5b366101ae57005b5f80fd5b3480156101bd575f80fd5b506101d16101cc366004611eb7565b6105f1565b005b3480156101de575f80fd5b506009546040805167ffffffffffffffff808416825278010000000000000000000000000000000000000000000000009093049092166020830152015b60405180910390f35b34801561022f575f80fd5b506101d16106e6565b348015610243575f80fd5b506004546102649073ffffffffffffffffffffffffffffffffffffffff1681565b60405173ffffffffffffffffffffffffffffffffffffffff909116815260200161021b565b348015610294575f80fd5b506101d16102a3366004611ef6565b610770565b3480156102b3575f80fd5b50600a546102649073ffffffffffffffffffffffffffffffffffffffff1681565b3480156102df575f80fd5b506102e960085481565b60405190815260200161021b565b348015610302575f80fd5b506102e9610976565b348015610316575f80fd5b5060035460ff165b604051901515815260200161021b565b348015610339575f80fd5b506101d1610348366004611eb7565b610c08565b348015610358575f80fd5b506102e960075481565b34801561036d575f80fd5b506101d1610d40565b348015610381575f80fd5b5060035461026490610100900473ffffffffffffffffffffffffffffffffffffffff1681565b3480156103b2575f80fd5b506101d1610e36565b3480156103c6575f80fd5b505f5473ffffffffffffffffffffffffffffffffffffffff16610264565b3480156103ef575f80fd5b506009547801000000000000000000000000000000000000000000000000900467ffffffffffffffff1642101561031e565b34801561042c575f80fd5b506101d161043b366004611f36565b610ebe565b34801561044b575f80fd5b506101d161045a366004611f56565b61102b565b34801561046a575f80fd5b506005546104919074010000000000000000000000000000000000000000900461ffff1681565b60405161ffff909116815260200161021b565b3480156104af575f80fd5b506102647f000000000000000000000000000000000000000000000000000000000000000081565b3480156104e2575f80fd5b506006546102649073ffffffffffffffffffffffffffffffffffffffff1681565b34801561050e575f80fd5b506102647f000000000000000000000000000000000000000000000000000000000000000081565b348015610541575f80fd5b506102647f000000000000000000000000000000000000000000000000000000000000000081565b348015610574575f80fd5b5060015473ffffffffffffffffffffffffffffffffffffffff16610264565b6101d16105a1366004611f8f565b6111f6565b3480156105b1575f80fd5b506005546102649073ffffffffffffffffffffffffffffffffffffffff1681565b3480156105dd575f80fd5b506101d16105ec366004611f36565b6113e6565b5f5473ffffffffffffffffffffffffffffffffffffffff163314610676576040517f08c379a000000000000000000000000000000000000000000000000000000000815260206004820152600960248201527f4e4f545f4f574e4552000000000000000000000000000000000000000000000060448201526064015b60405180910390fd5b60648111156106e1576040517f08c379a000000000000000000000000000000000000000000000000000000000815260206004820152600760248201527f4d41585f31303000000000000000000000000000000000000000000000000000604482015260640161066d565b600855565b5f5473ffffffffffffffffffffffffffffffffffffffff163314610766576040517f08c379a000000000000000000000000000000000000000000000000000000000815260206004820152600960248201527f4e4f545f4f574e45520000000000000000000000000000000000000000000000604482015260640161066d565b61076e6114db565b565b5f5473ffffffffffffffffffffffffffffffffffffffff1633146107f0576040517f08c379a000000000000000000000000000000000000000000000000000000000815260206004820152600960248201527f4e4f545f4f574e45520000000000000000000000000000000000000000000000604482015260640161066d565b73ffffffffffffffffffffffffffffffffffffffff83161561085157600380547fffffffffffffffffffffff0000000000000000000000000000000000000000ff1661010073ffffffffffffffffffffffffffffffffffffffff8616021790555b73ffffffffffffffffffffffffffffffffffffffff8216156108ae57600480547fffffffffffffffffffffffff00000000000000000000000000000000000000001673ffffffffffffffffffffffffffffffffffffffff84161790555b73ffffffffffffffffffffffffffffffffffffffff81161561090b57600580547fffffffffffffffffffffffff00000000000000000000000000000000000000001673ffffffffffffffffffffffffffffffffffffffff83161790555b6003546004546005546040805173ffffffffffffffffffffffffffffffffffffffff61010090950485168152928416602084015292168183015290517f0cdcdc7fd7c6c58f52b3a616aacfdfce274b67e4910565452ca4cb368d06ce769181900360600190a1505050565b6040517f70a082310000000000000000000000000000000000000000000000000000000081523060048201525f90819073ffffffffffffffffffffffffffffffffffffffff7f000000000000000000000000000000000000000000000000000000000000000016906370a0823190602401602060405180830381865afa158015610a02573d5f803e3d5ffd5b505050506040513d601f19601f82011682018060405250810190610a269190611ffb565b90505f60045f9054906101000a900473ffffffffffffffffffffffffffffffffffffffff1673ffffffffffffffffffffffffffffffffffffffff16634736afa16040518163ffffffff1660e01b8152600401602060405180830381865afa158015610a93573d5f803e3d5ffd5b505050506040513d601f19601f82011682018060405250810190610ab79190611ffb565b9050805f03610ac65750919050565b600480546040517f4cdad5060000000000000000000000000000000000000000000000000000000081529182018390525f9173ffffffffffffffffffffffffffffffffffffffff90911690634cdad50690602401602060405180830381865afa158015610b35573d5f803e3d5ffd5b505050506040513d601f19601f82011682018060405250810190610b599190611ffb565b6003546040517faeabdfc7000000000000000000000000000000000000000000000000000000008152600481018390529192505f9161010090910473ffffffffffffffffffffffffffffffffffffffff169063aeabdfc790602401602060405180830381865afa158015610bcf573d5f803e3d5ffd5b505050506040513d601f19601f82011682018060405250810190610bf39190611ffb565b9050610bff818561203f565b94505050505090565b600a5473ffffffffffffffffffffffffffffffffffffffff163314610c89576040517f08c379a000000000000000000000000000000000000000000000000000000000815260206004820152600c60248201527f4e4f545f4f50455241544f520000000000000000000000000000000000000000604482015260640161066d565b5f8111610cf4576040517f08c379a000000000000000000000000000000000000000000000000000000000815260040161066d9060208082526004908201527f5a45524f00000000000000000000000000000000000000000000000000000000604082015260600190565b8060075f828254610d05919061203f565b90915550506040518181527f4f8764a67536aacdd712b4f7b0872d6d5ce23cd544b5cf0dd4963fed403d8a919060200160405180910390a150565b60015473ffffffffffffffffffffffffffffffffffffffff163314610dc1576040517f08c379a000000000000000000000000000000000000000000000000000000000815260206004820152600b60248201527f4e4f545f50454e44494e47000000000000000000000000000000000000000000604482015260640161066d565b600180545f805473ffffffffffffffffffffffffffffffffffffffff83167fffffffffffffffffffffffff000000000000000000000000000000000000000091821681178355921690925560405133927f8be0079c531659141344cd1fd0a4f28419497f9722a3daafe3b4186f6b6457e091a3565b5f5473ffffffffffffffffffffffffffffffffffffffff163314610eb6576040517f08c379a000000000000000000000000000000000000000000000000000000000815260206004820152600960248201527f4e4f545f4f574e45520000000000000000000000000000000000000000000000604482015260640161066d565b61076e6115a5565b5f5473ffffffffffffffffffffffffffffffffffffffff163314610f3e576040517f08c379a000000000000000000000000000000000000000000000000000000000815260206004820152600960248201527f4e4f545f4f574e45520000000000000000000000000000000000000000000000604482015260640161066d565b73ffffffffffffffffffffffffffffffffffffffff8116610fbd576040517f08c379a000000000000000000000000000000000000000000000000000000000815260040161066d9060208082526004908201527f5a45524f00000000000000000000000000000000000000000000000000000000604082015260600190565b600a80547fffffffffffffffffffffffff00000000000000000000000000000000000000001673ffffffffffffffffffffffffffffffffffffffff83169081179091556040517fb3b3f5f64ab192e4b5fefde1f51ce9733bbdcf831951543b325aebd49cc27ec4905f90a250565b5f5473ffffffffffffffffffffffffffffffffffffffff1633146110ab576040517f08c379a000000000000000000000000000000000000000000000000000000000815260206004820152600960248201527f4e4f545f4f574e45520000000000000000000000000000000000000000000000604482015260640161066d565b73ffffffffffffffffffffffffffffffffffffffff811661112a576040517f08c379a000000000000000000000000000000000000000000000000000000000815260040161066d9060208082526004908201527f5a45524f00000000000000000000000000000000000000000000000000000000604082015260600190565b600580547fffffffffffffffffffff0000ffffffffffffffffffffffffffffffffffffffff167401000000000000000000000000000000000000000061ffff851690810291909117909155600680547fffffffffffffffffffffffff00000000000000000000000000000000000000001673ffffffffffffffffffffffffffffffffffffffff84169081179091556040805192835260208301919091527f0e73da690704ab70d1201c3ba61d25907dbef6b7267018f6c54592b04751a54d910160405180910390a15050565b600a5473ffffffffffffffffffffffffffffffffffffffff163314611277576040517f08c379a000000000000000000000000000000000000000000000000000000000815260206004820152600c60248201527f4e4f545f4f50455241544f520000000000000000000000000000000000000000604482015260640161066d565b60028054036112e2576040517f08c379a000000000000000000000000000000000000000000000000000000000815260206004820152600960248201527f5245454e5452414e540000000000000000000000000000000000000000000000604482015260640161066d565b6002805560035460ff1615611353576040517f08c379a000000000000000000000000000000000000000000000000000000000815260206004820152600660248201527f5041555345440000000000000000000000000000000000000000000000000000604482015260640161066d565b6009805467ffffffffffffffff169061136b9061166d565b5f611376848461177d565b90505f611381611be8565b6009546040805167ffffffffffffffff808816825290921660208301528101849052606081018290529091507f4ee41a7c71b4acbcb255005847032386cdbdbdd432a6af99e9f12f1fdb59755d9060800160405180910390a150506001600255505050565b5f5473ffffffffffffffffffffffffffffffffffffffff163314611466576040517f08c379a000000000000000000000000000000000000000000000000000000000815260206004820152600960248201527f4e4f545f4f574e45520000000000000000000000000000000000000000000000604482015260640161066d565b600180547fffffffffffffffffffffffff00000000000000000000000000000000000000001673ffffffffffffffffffffffffffffffffffffffff8381169182179092555f8054604051929316917f38d16b8cac22d99fc7c124b9cd0de2d3fa1faef420bfe791d8c362d765e227009190a350565b60035460ff16611547576040517f08c379a000000000000000000000000000000000000000000000000000000000815260206004820152600a60248201527f4e4f545f50415553454400000000000000000000000000000000000000000000604482015260640161066d565b600380547fffffffffffffffffffffffffffffffffffffffffffffffffffffffffffffff001690556040513381527f5db9ee0a495bf2e6ff9c91a7834c1ba4fdd244a5e8aa4e537bd38aeae4b073aa906020015b60405180910390a1565b60035460ff1615611612576040517f08c379a000000000000000000000000000000000000000000000000000000000815260206004820152600660248201527f5041555345440000000000000000000000000000000000000000000000000000604482015260640161066d565b600380547fffffffffffffffffffffffffffffffffffffffffffffffffffffffffffffff001660011790556040513381527f62e78cea01bee320cd4e420270b5ea74000d11b0c9f74754ebdbfc544b05a2589060200161159b565b80547801000000000000000000000000000000000000000000000000900467ffffffffffffffff164210156116ce576040517fac724c0900000000000000000000000000000000000000000000000000000000815260040160405180910390fd5b805460019082905f906116ec90849067ffffffffffffffff16612052565b82546101009290920a67ffffffffffffffff818102199093169183160217909155825470010000000000000000000000000000000081048216925083916018916117549185917801000000000000000000000000000000000000000000000000900416612052565b92506101000a81548167ffffffffffffffff021916908367ffffffffffffffff16021790555050565b6007545f90808203611792575f915050611be2565b5f61179b610976565b9050805f036117b35750505f60078190559050611be2565b5f816117c18461271061207a565b6117cb9190612091565b90506127108111156117dc57506127105b5f60045f9054906101000a900473ffffffffffffffffffffffffffffffffffffffff1673ffffffffffffffffffffffffffffffffffffffff16634736afa16040518163ffffffff1660e01b8152600401602060405180830381865afa158015611847573d5f803e3d5ffd5b505050506040513d601f19601f8201168201806040525081019061186b9190611ffb565b90505f8111801561187b57505f82115b15611bd9575f61271061188e848461207a565b6118989190612091565b90508015611bd757600480546040517f2e17de780000000000000000000000000000000000000000000000000000000081529182018390525f9173ffffffffffffffffffffffffffffffffffffffff90911690632e17de78906024016020604051808303815f875af1158015611910573d5f803e3d5ffd5b505050506040513d601f19601f820116820180604052508101906119349190611ffb565b90505f61271060085461271061194a91906120c9565b6003546040517faeabdfc70000000000000000000000000000000000000000000000000000000081526004810186905261010090910473ffffffffffffffffffffffffffffffffffffffff169063aeabdfc790602401602060405180830381865afa1580156119bb573d5f803e3d5ffd5b505050506040513d601f19601f820116820180604052508101906119df9190611ffb565b6119e9919061207a565b6119f39190612091565b6003546040517f0536ddbc00000000000000000000000000000000000000000000000000000000815260048101859052602481018390523060448201529192505f9161010090910473ffffffffffffffffffffffffffffffffffffffff1690630536ddbc906064016020604051808303815f875af1158015611a77573d5f803e3d5ffd5b505050506040513d601f19601f82011682018060405250810190611a9b9190611ffb565b90508015611bd3575f612710600854612710611ab791906120c9565b611ac1908461207a565b611acb9190612091565b90505f600560149054906101000a900461ffff1690505f60065f9054906101000a900473ffffffffffffffffffffffffffffffffffffffff1690505f8e8e8080601f0160208091040260200160405190810160405280939291908181526020018383808284375f92019190915250506005546040517f99eea33500000000000000000000000000000000000000000000000000000000815293945073ffffffffffffffffffffffffffffffffffffffff16926399eea3359250479150611b9d90879087908b908b9089906004016120dc565b5f604051808303818588803b158015611bb4575f80fd5b505af1158015611bc6573d5f803e3d5ffd5b5050505050849c50505050505b5050505b505b50505f60075550505b92915050565b6040517f70a082310000000000000000000000000000000000000000000000000000000081523060048201525f90819073ffffffffffffffffffffffffffffffffffffffff7f000000000000000000000000000000000000000000000000000000000000000016906370a0823190602401602060405180830381865afa158015611c74573d5f803e3d5ffd5b505050506040513d601f19601f82011682018060405250810190611c989190611ffb565b9050805f03611ca8575f91505090565b5f612710600854612710611cbc91906120c9565b6003546040517fe854f9cc0000000000000000000000000000000000000000000000000000000081526004810186905261010090910473ffffffffffffffffffffffffffffffffffffffff169063e854f9cc90602401602060405180830381865afa158015611d2d573d5f803e3d5ffd5b505050506040513d601f19601f82011682018060405250810190611d519190611ffb565b611d5b919061207a565b611d659190612091565b6003546040517fc231149600000000000000000000000000000000000000000000000000000000815260048101859052602481018390523060448201529192505f9161010090910473ffffffffffffffffffffffffffffffffffffffff169063c2311496906064016020604051808303815f875af1158015611de9573d5f803e3d5ffd5b505050506040513d601f19601f82011682018060405250810190611e0d9190611ffb565b9050805f03611e1f575f935050505090565b600480546040517fa694fc3a00000000000000000000000000000000000000000000000000000000815291820183905273ffffffffffffffffffffffffffffffffffffffff169063a694fc3a906024016020604051808303815f875af1158015611e8b573d5f803e3d5ffd5b505050506040513d601f19601f82011682018060405250810190611eaf9190611ffb565b935050505090565b5f60208284031215611ec7575f80fd5b5035919050565b803573ffffffffffffffffffffffffffffffffffffffff81168114611ef1575f80fd5b919050565b5f805f60608486031215611f08575f80fd5b611f1184611ece565b9250611f1f60208501611ece565b9150611f2d60408501611ece565b90509250925092565b5f60208284031215611f46575f80fd5b611f4f82611ece565b9392505050565b5f8060408385031215611f67575f80fd5b823561ffff81168114611f78575f80fd5b9150611f8660208401611ece565b90509250929050565b5f8060208385031215611fa0575f80fd5b823567ffffffffffffffff80821115611fb7575f80fd5b818501915085601f830112611fca575f80fd5b813581811115611fd8575f80fd5b866020828501011115611fe9575f80fd5b60209290920196919550909350505050565b5f6020828403121561200b575f80fd5b5051919050565b7f4e487b71000000000000000000000000000000000000000000000000000000005f52601160045260245ffd5b80820180821115611be257611be2612012565b67ffffffffffffffff81811683821601908082111561207357612073612012565b5092915050565b8082028115828204841417611be257611be2612012565b5f826120c4577f4e487b71000000000000000000000000000000000000000000000000000000005f52601260045260245ffd5b500490565b81810381811115611be257611be2612012565b61ffff861681525f602073ffffffffffffffffffffffffffffffffffffffff8716602084015285604084015284606084015260a0608084015283518060a08501525f5b8181101561213b5785810183015185820160c00152820161211f565b505f60c0828601015260c07fffffffffffffffffffffffffffffffffffffffffffffffffffffffffffffffe0601f83011685010192505050969550505050505056fea264697066735822122026a819cd983bdd9cdf3f58e608280d5850744963016a193891199cb8b7cd3c2764736f6c63430008180033","linkReferences":{}},"methodIdentifiers":{"USDT()":"c54e44eb","USDe()":"d1609502","acceptOwnership()":"79ba5097","bridge()":"e78cea92","canRollover()":"b39d6dc8","epochInfo()":"1f1b8a8c","kaiaChainId()":"bbc2097f","kaiaRecipient()":"c5fd2972","operator()":"570ca735","owner()":"8da5cb5b","pause()":"8456cb59","paused()":"5c975abb","pendingOwner()":"e30c3978","queuedWithdrawalUSDT()":"6cadb280","rolloverEpoch(bytes)":"e7162ac1","sUSDe()":"e0d05d39","scheduleWithdrawal(uint256)":"63a46250","setAdapters(address,address,address)":"50e9dd39","setKaiaRecipient(uint16,address)":"b8ad0e97","setOperator(address)":"b3ab15fb","setSlippageBps(uint256)":"1a3ce4e6","slippageBps()":"578c71d9","staking()":"4cf088d9","swap()":"8119c065","totalUSDTEquivalent()":"5bc4b510","transferOwnership(address)":"f2fde38b","unpause()":"3f4ba83a"},"id":1}